:1000000000308A00E72800002730840083130008AE
:10001000031917280230F800F701F70B0D28F80B29
:100020000C289730F700F70B1328800B0A280800DC
:100030002B0EF039F7000F30080577048800000018
:10004000081422282328081008000808F700080EC2
:100050000F39F80008008316081088100811831261
:1000600088100F3083160805F038880083120815B1
:1000700000000814000025207808AB0008100000DC
:100080000814422825207808AA0008100F3083168B
:100090000805880083122B0EF700F030F70577086B
:1000A0002A04F8007808AA00AA1B3128281C881006
:1000B000281888140000081100000810290EAA0052
:1000C0000F30AA052A08AB00182029080F39AA000A
:1000D000AB00182008002830A3000C30A400013029
:1000E000A5000630A6000810881008110F308316EE
:1000F000080588000810881008110F308312A70027
:1001000004200130A2002208033C031C8F28033086
:10011000AB0018200530A7000420A20A8328023073
:10012000AB0018200530A7000420A2012208033CE0
:10013000031CA62823302207840083130008A7008D
:10014000A8012708A9002B20A20A96288A110A12C2
:10015000F428240BAC28AF284030A500B028A50116
:1001600001302302A50725088038A600A80126082B
:10017000A9002B2008002208073A0319C9280B3AC6
:100180000319CE28063A0319D628023A0319DC28A7
:10019000E1280130A300A400A920E628A80101302D
:1001A000A9002B200230A7000420E6280130A3007C
:1001B0000230A400A920E628A8011030A9002B20B5
:1001C000E6280130A8002208A9002B200800030817
:1001D0001F39830083161F149F141F159F1183134B
:1001E0000030880083126B280130A10083160514AB
:1001F0008312051C0E29A108031D00290130A1004E
:100200002108A3000130A400A9204130A200BB2096
:10021000A10A83160514831205180929831685146B
:100220008312851C2629A108031D18290130A1006D
:100230002108A3000130A400A9204C30A200BB205B
:10024000A10A8316851483128518212983160515A2
:100250008312051D3E29A108031D30290130A1008C
:100260002108A3000130A400A9204930A200BB202E
:10027000A10A8316051583120519392983168515D8
:100280008312851D5629A108031D48290130A100AC
:10029000A1032108A3000130A400A9202030A2005E
:1002A000BB2083168515831285195129F628630012
:02400E00323F3F
:00000001FF
;PIC16F877
;CRC=FADD  CREATED="02-Haz-18 17:39"
